:100000000C9446000C9450000C9450000C9450003A
:100010000C9450000C9450000C9450000C94500020
:100020000C9450000C9450000C9450000C94500010
:100030000C9450000C9450000C9450000C94500000
:100040000C9450000C9450000C9450000C945000F0
:100050000C9450000C9450000C9450000C945000E0
:100060000C9450000C9450000C9450000C945000D0
:100070000C9450000C9450000C94500099009B007C
:100080009D009F00A100A300A500A70011241FBE92
:10009000CFEFD8E0DEBFCDBF0E9481000C94BA0044
:1000A0000C9400001092C50087E68093C40088E19C
:1000B0008093C10086E08093C20008959091C000B3
:1000C00095FFFCCF8093C60008958091C00087FF04
:1000D000FCCF8091C6000895CF93DF93EC01899106
:1000E000882319F00E945E00FACFDF91CF91089526
:1000F0009091C00095FFFCCF8093C60080E090E017
:1001000008950E94520012B881B18F6081B90E9497
:1001100065005F9A992787FD9095A92FB92FFC015B
:10012000E156F109E830F105A0F4E25CFF4F0C94D0
:10013000B400109A0FC010980DC0119A0BC01198FE
:1001400009C0129A07C0129805C0139A03C01398E9
:1001500001C012B82FEF81EE94E021508040904012
:10016000E1F700C00000D3CFEE0FFF1F0590F49120
:08017000E02D0994F894FFCF83
:00000001FF
